:020000040800F2
:1000000000000824A91E0008B9100008C11000084B
:10001000C9100008D1100008D91000080000000025
:10002000000000000000000000000000E1100008D7
:10003000EF10000800000000FD1000080B11000880
:10004000F91E0008F91E0008F91E0008F91E000834
:10005000F91E0008F91E000817110008F91E000813
:10006000F91E0008F91E0008F91E0008F91E000814
:10007000F91E0008F91E0008F91E0008F91E000804
:10008000F91E0008F91E0008F91E0008F91E0008F4
:10009000F91E0008F91E0008F91E000825110008C5
:1000A000F91E0008F91E0008F91E0008F91E0008D4
:1000B000F91E0008F91E0008F91E0008F91E0008C4
:1000C000F91E0008F91E0008F91E0008F91E0008B4
:1000D000F91E0008F91E0008F91E0008F91E0008A4
:1000E0003B110008F91E000800000000F91E00087E
:1000F000F91E0008F91E0008F91E0008F91E000884
:10010000F91E0008F91E0008F91E0008F91E000873
:10011000F91E0008F91E0008F91E0008F91E000863
:10012000F91E0008F91E0008F91E0008F91E000853
:10013000F91E0008F91E0008F91E0008F91E000843
:1001400000000000000000000000000000000000AF
:10015000F91E0008F91E0008F91E0008F91E000823
:10016000F91E0008F91E0008F91E0008F91E000813
:10017000F91E0008F91E0008F91E0008F91E000803
:10018000F91E0008F91E0008F91E0008F91E0008F3
:10019000F91E0008F91E0008F91E0008F91E0008E3
:1001A000F91E0008F91E0008F91E0008F91E0008D3
:1001B000F91E0008F91E0008F91E0008F91E0008C3
:1001C000F91E0008F91E0008F91E0008F91E0008B3
:1001D000F91E0008F91E0008F91E0008F91E0008A3
:1001E000F91E0008F91E0008F91E0008F91E000893
:1001F000F91E0008F91E0008F91E0008F91E000883
:10020000F91E0008F91E0008F91E0008F91E000872
:10021000F91E0008F91E0008F91E0008F91E000862
:10022000F91E0008F91E0008F91E00080000000071
:10023000F91E0008F91E000800000000F91E000861
:10024000F91E0008F91E0008F91E0008F91E000832
:10025000F91E0008F91E0008F91E0008F91E000822
:10026000F91E0008F91E0008F91E0008F91E000812
:10027000F91E0008F91E0008F91E00080000000021
:10028000F91E0008F91E0008F91E00080000000011
:0802900000000000F91E000847
:1002A00010B5054C237833B9044B13B10448AFF3B0
:1002B00000800123237010BDE8010024000000002D
:1002C000B8C7000808B5034B1BB103490348AFF397
:1002D000008008BD00000000EC010024B8C7000841
:1002E00001F0FF01102A2BDB10F0070F08D010F8E7
:1002F000013B013A8B422DD010F0070F42B3F6D1EB
:10030000F0B441EA012141EA014122F007047FF003
:1003100000070023F0E80256083C85EA010586EA5A
:10032000010685FA47F5A3FA87F586FA47F6A5FA96
:1003300087F68EB9EED1F0BC01F0FF0102F00702A2
:1003400032B110F8013B013A83EA010313B1F8D14D
:100350000020704701387047002D06BF354603382E
:10036000073815F0010F07D1013015F4807F02BF67
:10037000013015F4C03F0130F0BC0138704700BFB8
:10038000034613F8012B002AFBD1181A01387047D5
:1003900053B94AB9002908BF00281CBF4FF0FF31EC
:1003A0004FF0FF3000F06AB9ADF1080C6DE904CEF2
:1003B00000F006F8DDF804E0DDE9022304B0704740
:1003C0002DE9F047089D0C46002B4ED194468C45F4
:1003D0008646B2FA82F262D94AB1C2F12003914054
:1003E00020FA03F30CFA02FC194300FA02FE4FEA6A
:1003F0001C471FFA8CF6B1FBF7F44FEA1E4307FBCC
:10040000141143EA014304FB06F199420AD91CEB9B
:10041000030304F1FF3080F01281994240F20F8112
:10042000023C6344591A1FFA8EF3B1FBF7F007FB45
:10043000101143EA014300FB06F69E420AD91CEB69
:10044000030300F1FF3180F0FC809E4240F2F9800E
:10045000634402389B1B40EA044000211DB1D34095
:100460000022C5E90032BDE8F0878B4205D90DB105
:10047000C5E9000100210846F5E7B3FA83F1002938
:1004800046D1A34202D39042C0F0F080861A64EBBA
:1004900003030120002DE6D0C5E90063E3E7002A4D
:1004A00040F09080A1EB0C044FEA1C481FFA8CF737
:1004B0000121B4FBF8F64FEA1E4308FB164443EA59
:1004C000044307FB06F0984208D91CEB030306F12E
:1004D000FF3402D2984200F2CD8026461C1A1FFA41
:1004E0008EF3B4FBF8F008FB104443EA044300FB2E
:1004F00007F79F4208D91CEB030300F1FF3402D237
:100500009F4200F2B0802046DB1B40EA0640A5E790
:10051000C1F120068B4022FA06F71F4320FA06FCA1
:1005200004FA01F343EA0C03F44000FA01F8380C32
:100530004FEA1349B4FBF0FE1FFA87FC00FB1E4490
:1005400049EA04440EFB0CF9A14502FA01F20AD96A
:100550003C190EF1FF3A80F08480A14540F2818081
:10056000AEF1020E3C44A4EB09041FFA83F9B4FB7C
:10057000F0F300FB134449EA044403FB0CFCA445DC
:1005800007D93C1903F1FF3067D2A44565D9023B76
:100590003C4443EA0E40A0FB0293A4EB0C049C42B3
:1005A000CE469C4651D34ED055B1B8EB0E0364EB0A
:1005B0000C0404FA06F6CB401E43CC40C5E90064A7
:1005C000002150E7C2F1200320FA03F10CFA02FCEB
:1005D00024FA03F394400C434FEA1C4800FA02FE4D
:1005E0001FFA8CF7B3FBF8F008FB1031230C43EA39
:1005F000014300FB07F1994208D91CEB030300F10A
:10060000FF362CD299422AD9023863445B1AA4B22D
:10061000B3FBF8F108FB113344EA034401FB07F391
:10062000A34208D91CEB040401F1FF3613D2A34204
:1006300011D902396444E41A41EA004139E7044619
:10064000F0E6084606E7C845AED2B9EB020E63EB0A
:10065000070C0138A8E73146EDE7034699E7304635
:10066000D4E7D6467FE7634402384DE70646234683
:1006700008460FE7023E634430E700BF704700BF03
:1006800080B483B000AF0346FB71184B1B78591C34
:10069000174B83FB01235A10CB17D21A13469B002A
:1006A0001344CA1A134B1B789A4201D1002316E057
:1006B0000E4B1B781946104AFB7953540B4B1B7891
:1006C0005A1C0B4B83FB02135910D317C91A0B4644
:1006D0009B000B44D11ACAB2044B1A70012318466E
:1006E0000C37BD465DF8047B704700BF0A0200244A
:1006F00067666666090200240402002480B483B0A1
:1007000000AF124B1A78124B1B789A4201D1FF238B
:1007100016E00E4B1B781A460E4B9B5CFB710B4B85
:100720001B785A1C0C4B83FB02135910D317C91AA0
:100730000B469B000B44D11ACAB2044B1A70FB79CA
:1007400018460C37BD465DF8047B7047090200244B
:100750000A020024040200246766666680B58CB035
:1007600000AF07F11C0300221A605A609A60DA6039
:100770001A61A74BD3F8E030A54A43F08003C2F8D2
:10078000E030A34BD3F8E03003F08003BB61BB69DA
:100790009F4BD3F8E0309E4A43F00103C2F8E030AB
:1007A0009B4BD3F8E03003F001037B617B69984BEE
:1007B000D3F8E030964A43F00203C2F8E030944B9D
:1007C000D3F8E03003F002033B613B69904BD3F870
:1007D000E0308F4A43F01003C2F8E0308C4BD3F87E
:1007E000E03003F01003FB60FB68894BD3F8E03086
:1007F000874A43F00803C2F8E030854BD3F8E03075
:1008000003F00803BB60BB68814BD3F8E030804A3B
:1008100043F00403C2F8E0307D4BD3F8E03003F03E
:1008200004037B607B68002240F20621794803F0D4
:1008300093FB00224FF46251774803F08DFB0022B6
:100840004FF46051754803F087FB00224FF460714C
:10085000734803F081FB00224FF48061714803F07C
:100860007BFB0123FB614FF488133B6200237B6217
:1008700007F11C031946674803F0A6F90223FB6140
:1008800011233B6200237B620023BB6207F11C0340
:100890001946604803F098F94FF40173FB61012396
:1008A0003B6200237B620023BB6207F11C031946F5
:1008B000584803F089F94FF44253FB6101233B622E
:1008C00000237B620023BB6207F11C0319465248D8
:1008D00003F07AF94FF40073FB614FF488133B6225
:1008E00000237B6207F11C0319464B4803F06CF9A7
:1008F0004FF40063FB6111233B6200237B62002302
:10090000BB6207F11C031946434803F05DF94FF43D
:100910008063FB614FF488133B6200237B6207F125
:100920001C0319463D4803F04FF94FF40063FB6187
:1009300011233B6200237B620023BB6207F11C038F
:100940001946364803F040F94FF44053FB61012348
:100950003B6200237B620023BB6207F11C03194644
:100960002E4803F031F94023FB614FF488133B62BA
:1009700000237B6207F11C031946294803F024F980
:100980008023FB6111233B6200237B620023BB6257
:1009900007F11C031946224803F016F94FF440737F
:1009A000FB6101233B6200237B620023BB6207F1F2
:1009B0001C0319461A4803F007F94FF48063FB61E2
:1009C00001233B6200237B620023BB6207F11C030F
:1009D0001946144803F0F8F800220021062003F01D
:1009E00046F8062003F05DF800220021172003F0EE
:1009F0003EF8172003F055F800220021282003F0CC
:100A000036F8282003F04DF800BF3037BD4680BDD2
:100A1000004402580004025800100258000C02580A
:100A2000000802580000025880B500AF1B4B1C4A5A
:100A30001A601A4B1B4A5A60184B00229A60174BD7
:100A40000122DA60154B00221A61144B00225A6110
:100A5000124B00229A61114B0022DA610F4B0022E7
:100A60001A620E4803F0ACFA0346002B01D000F0E6
:100A70009FF90021094803F03FFB0346002B01D0FA
:100A800000F096F90021054803F081FB0346002B96
:100A900001D000F08DF900BF80BD00BF0C02002422
:100AA00000540040B075701080B5BAB000AF7860E7
:100AB00007F1D40300221A605A609A60DA601A6162
:100AC00007F11003C0220021184609F000FE7B68E0
:100AD0001B68264A934245D14FF008024FF00003AD
:100AE000C7E904230023C7F8943007F11003184620
:100AF00004F0BAFB0346002B01D000F059F91C4B5F
:100B0000D3F8E0301A4A43F00203C2F8E030184B41
:100B1000D3F8E03003F00203FB60FB68C023C7F8A2
:100B2000D4301223C7F8D8300023C7F8DC300023B4
:100B3000C7F8E0300423C7F8E43007F1D4031946BE
:100B40000C4803F041F80A4BD3F8E830084A43F464
:100B50000013C2F8E830064BD3F8E83003F4001372
:100B6000BB60BB6800BFE837BD4680BD0054004095
:100B7000004402580004025880B400AFBFF34F8F06
:100B800000BF064BDB6803F4E0620449044B1343E7
:100B9000CB60BFF34F8F00BF00BFFDE700ED00E06B
:100BA0000400FA0580B586B004AF00F0D5F802F075
:100BB000C1FD00F053F8FFF7D1FDFFF735FF00F05E
:100BC000FDF800F0F5FB00F04FF900F045FC00F0F7
:100BD00057FD642001F028F90346002B04D100F0F2
:100BE00017FE0346002B03D072B600BFFFF7C4FF09
:100BF000FF23FB70FFF782FD0346FB70FB78DBB23F
:100C0000FF2BF7D0FB78DBB21A464FF4B47302FB2C
:100C100003F3104A13447B607B68D3F83011FB78F0
:100C2000DBB21A467B68B3F82C3118467B68D3EDEB
:100C30004D7AB7EEE77A7B68D3ED4E6AB7EEE66A97
:100C40008DED026B8DED007B0346034809F0EAFC55
:100C5000D0E700BF60020024D0C7000880B59CB078
:100C600000AF07F124034C220021184609F02FFDA4
:100C70003B1D20220021184609F029FD022003F027
:100C8000D3FA00233B60324BDB6A314A23F0010385
:100C9000D3622F4BDB6A03F001033B602D4B9B6952
:100CA00023F440432B4A43F400439361294B9B694F
:100CB00003F440433B603B6800BF264B9B6903F451
:100CC0000053B3F5005FF8D110237B6280233B64AF
:100CD00020237B640223BB640123FB6401233B6567
:100CE00078237B650223BB650423FB6502233B66F7
:100CF00008237B660023BB660023FB6607F1240301
:100D0000184603F0CBFA0346002B01D000F050F850
:100D10003F237B600323BB600023FB6000233B6118
:100D200040237B615023BB614FF48063FB61402310
:100D30003B623B1D0021184603F00AFF0346002BCF
:100D400001D000F035F800BF7037BD4680BD00BF50
:100D5000000400580048025880B584B000AF3B46FC
:100D600000221A605A609A60DA6002F0B5FE012330
:100D70003B7000237B7000237B601F233B72872323
:100D80007B720023BB720023FB7201233B730123A0
:100D90007B730023BB730023FB733B46184602F0B2
:100DA000D3FE042002F0B0FE00BF1037BD4680BD68
:100DB00080B400AF72B600BF00BFFDE780B500AFE2
:100DC000274B284A1A60264B4FF480025A60244B66
:100DD00000229A60224B0322DA60214B00221A6122
:100DE0001F4B00225A611E4B4FF080629A611C4BD0
:100DF0000022DA611A4B00221A62194B00225A6251
:100E0000174B00229A62164B0022DA62144B4FF005
:100E100080425A63124B00229A63114B0022DA631C
:100E20000F4B00221A640E4B00225A640C4B002216
:100E30009A640B4B0022DA64094B00221A65084BB6
:100E400000225A65064B00229A65054806F038F8DC
:100E50000346002B01D0FFF7ABFF00BF80BD00BFF2
:100E6000000800240030014080B500AF274B284A1D
:100E70001A60264B4FF480025A60244B00229A607D
:100E8000224B0322DA60214B00221A611F4B002201
:100E90005A611E4B4FF080629A611C4B0022DA614E
:100EA0001A4B00221A62194B00225A62174B002279
:100EB0009A62164B0022DA62144B4FF080425A635A
:100EC000124B00229A63114B0022DA630F4B00226F
:100ED0001A640E4B00225A640C4B00229A640B4B8E
:100EE0000022DA64094B00221A65084B00225A6579
:100EF000064B00229A65054805F0E2FF0346002BE9
:100F000001D0FFF755FF00BF80BD00BF8808002457
:100F10000038004080B5BCB000AF786007F1DC035A
:100F200000221A605A609A60DA601A6107F11803A9
:100F3000C0220021184609F0CAFB7B681B684C4A96
:100F4000934245D14FF480524FF00003C7E9062386
:100F50000023BB6707F11803184604F085F9034620
:100F6000002B01D0FFF724FF424BD3F8F030414A69
:100F700043F48053C2F8F0303E4BD3F8F03003F422
:100F800080537B617B693B4BD3F8E030394A43F0B7
:100F90000103C2F8E030374BD3F8E03003F001032F
:100FA0003B613B69E023C7F8DC300223C7F8E0303F
:100FB0000023C7F8E4300023C7F8E8300523C7F85A
:100FC000EC3007F1DC0319462B4802F0FDFD4AE046
:100FD0007B681B68294A934245D14FF480524FF0F9
:100FE0000003C7E906230023BB6707F1180318466F
:100FF00004F03AF90346002B01D0FFF7D9FE1D4B50
:10100000D3F8E8301B4A43F48043C2F8E830194B68
:10101000D3F8E83003F48043FB60FB68154BD3F84A
:10102000E030144A43F00203C2F8E030114BD3F829
:10103000E03003F00203BB60BB684FF46043C7F8C5
:10104000DC300223C7F8E0300023C7F8E430002387
:10105000C7F8E8300523C7F8EC3007F1DC03194680
:10106000074802F0B1FD00BFF037BD4680BD00BFAC
:10107000003001400044025800000258003800408F
:101080000004025880B483B000AF0A4BD3F8F430A8
:10109000084A43F00203C2F8F430064BD3F8F430A8
:1010A00003F002037B607B6800BF0C37BD465DF830
:1010B000047B70470044025880B400AF00BFFDE7D6
:1010C00080B400AF00BFFDE780B400AF00BFFDE714
:1010D00080B400AF00BFFDE780B400AF00BFFDE704
:1010E00080B400AF00BFBD465DF8047B704780B49C
:1010F00000AF00BFBD465DF8047B704780B400AF11
:1011000000BFBD465DF8047B704780B500AF02F0BC
:1011100083FB00BF80BD80B500AF012002F035FF2A
:1011200000BF80BD80B500AF402002F02EFF4FF41D
:10113000007002F02AFF00BF80BD80B500AF4FF401
:10114000806002F022FF00BF80BD80B400AF0123A9
:101150001846BD465DF8047B704780B582B000AF8D
:101160007860396009F006FB034616221A604FF0DA
:10117000FF3318460837BD4680BD80B582B000AF4A
:1011800078604FF0FF317868FFF7E7FF00BFFDE7B9
:1011900080B586B000AFF860B9607A6000237B61EB
:1011A0000AE0AFF300800146BB685A1CBA60CAB2BD
:1011B0001A707B6901337B617A697B689A42F0DB44
:1011C0007B6818461837BD4680BD80B483B000AF39
:1011D00078604FF0FF3318460C37BD465DF8047B4E
:1011E000704780B483B000AF786039603B684FF4DB
:1011F00000525A60002318460C37BD465DF8047B48
:10120000704780B483B000AF7860012318460C3774
:10121000BD465DF8047B704780B485B000AFF860D0
:10122000B9607A60002318461437BD465DF8047B28
:101230007047000080B586B000AF7860144A154B47
:10124000D31A7B617B693B61134B1B68002B02D176
:10125000114B124A1A60104B1A687B6813443A69A2
:101260009A4207D209F086FA03460C221A604FF020
:10127000FF3309E0084B1B68FB60074B1A687B686B
:101280001344054A1360FB6818461837BD4680BDF5
:10129000000008240004000010090024800C002431
:1012A00080B400AF374BD3F88830364A43F470032C
:1012B000C2F88830344B1B6803F00F03062B07D8A5
:1012C000314B1B6823F00F032F4A43F007031360D1
:1012D0002E4B1B682D4A43F0010313602B4B002259
:1012E0001A612A4B1A682949294B13400B60264B77
:1012F0001B6803F00803002B07D0234B1B6823F067
:101300000F03214A43F007031360204B00229A6128
:101310001E4B0022DA611D4B00221A621B4B1D4A34
:101320009A621A4B1C4ADA62184B1C4A1A63174B12
:1013300000225A63154B194A9A63144B0022DA6350
:10134000124B164A1A64114B00225A640F4B1B6849
:101350000E4A23F4802313600C4B00221A66104BB4
:101360001A68104B1340B3F1005F02D20E4B0122FA
:101370001A600E4B43F2D2021A6000BFBD465DF800
:10138000047B704700ED00E000200052004402584A
:101390007FEDF6EA000202020000FF018002010177
:1013A0000010005C0000FFFF088100510040005267
:1013B00080B588B000AF07F1100300221A605A60B0
:1013C0009A60DA603B1D00221A605A609A60204BD6
:1013D000204A1A601E4B00225A601D4B00229A6060
:1013E0001B4B4FF6FF72DA60194B00221A61184B43
:1013F00000225A61164B00229A61154806F0DBFB69
:101400000346002B01D0FFF7D3FC4FF480533B6120
:1014100007F1100319460E4806F000FD0346002BA5
:1014200001D0FFF7C5FC00237B600023BB600023D5
:10143000FB603B1D1946064807F002FA0346002BE5
:1014400001D0FFF7B5FC00BF2037BD4680BD00BF0F
:10145000140900240000014080B58EB000AF07F1F0
:10146000280300221A605A609A60DA6007F11C03B0
:1014700000221A605A609A603B4600221A605A6045
:101480009A60DA601A615A619A61304B4FF080427B
:101490001A602E4B00225A602C4B00229A602B4B74
:1014A0004FF0FF32DA60294B00221A61274B0022ED
:1014B0009A61264806F07FFB0346002B01D0FFF718
:1014C00077FC4FF40053BB620023FB6200233B63B5
:1014D00000237B6307F1280319461C4806F09EFC95
:1014E0000346002B01D0FFF763FC184806F0BAFB57
:1014F0000346002B01D0FFF75BFC0023FB610023B8
:101500007B6207F11C031946104807F099F903465E
:10151000002B01D0FFF74CFC00233B6000237B60D5
:101520000023BB6000233B613B4604221946074869
:1015300006F0FAFB0346002B01D0FFF739FC034805
:1015400000F066F800BF3837BD4680BD6009002452
:1015500080B58AB000AF786007F1140300221A60EA
:101560005A609A60DA601A617B681B68254A934268
:101570000FD1254BD3F8F030234A43F00103C2F8D2
:10158000F030214BD3F8F03003F001033B613B69AD
:1015900033E07B681B68B3F1804F2ED11A4BD3F830
:1015A000E830194A43F00103C2F8E830164BD3F88B
:1015B000E83003F00103FB60FB68134BD3F8E03025
:1015C000114A43F00103C2F8E0300F4BD3F8E0308A
:1015D00003F00103BB60BB684FF400437B6102234F
:1015E000BB610023FB6100233B6201237B6207F1A7
:1015F00014031946054802F0E7FA00BF2837BD4634
:1016000080BD00BF000001400044025800000258A5
:1016100080B588B000AF786007F10C0300221A6033
:101620005A609A60DA601A617B681B68B3F1804F78
:101630001ED1114BD3F8E0300F4A43F00203C2F839
:10164000E0300D4BD3F8E03003F00203BB60BB6821
:101650000823FB6002233B6100237B610023BB6105
:101660000123FB6107F10C031946044802F0ACFAB0
:1016700000BF2037BD4680BD004402580004025818
:1016800080B500AF224B234A1A60214B4FF4E13260
:101690005A601F4B00229A601D4B0022DA601C4BDF
:1016A00000221A611A4B0C225A61194B00229A61CE
:1016B000174B0022DA61164B00221A62144B0022EB
:1016C0005A62134B00229A62114807F047F9034609
:1016D000002B01D0FFF76CFB00210D4808F0DDF96D
:1016E0000346002B01D0FFF763FB0021084808F0F8
:1016F00012FA0346002B01D0FFF75AFB044808F00A
:1017000093F90346002B01D0FFF752FB00BF80BDC9
:10171000AC090024004C004080B5BAB000AF78603E
:1017200007F1D40300221A605A609A60DA601A61E5
:1017300007F11003C0220021184608F0C8FF7B689B
:101740001B68264A934245D14FF002024FF0000336
:10175000C7E904230023C7F8883007F110031846AF
:1017600003F082FD0346002B01D0FFF721FB1C4B49
:10177000D3F8E8301A4A43F40023C2F8E830184B93
:10178000D3F8E83003F40023FB60FB68144BD3F874
:10179000E030134A43F00103C2F8E030104BD3F8B5
:1017A000E03003F00103BB60BB680323C7F8D4300B
:1017B0000223C7F8D8300023C7F8DC300023C7F86D
:1017C000E0300823C7F8E43007F1D4031946054890
:1017D00002F0FAF900BFE837BD4680BD004C00407A
:1017E000004402580000025880B584B000AFF86091
:1017F000B9607A607B689AB26423B968034807F0DD
:10180000FDF87B6818461037BD4680BDAC09002442
:1018100080B586B000AF00237B61B2E0AA4B002206
:1018200083F83020A84BA94A9A60A74B01221A8559
:10183000A54BA74A5A62A44B02221A84A24BA44A7F
:10184000DA61A14B04221A829F4BA14ADA609E4BB7
:1018500080221A839C4B9F4A5A619B4B0622DA6274
:10186000994B012283F89821974B984AC3F870212D
:10187000954B4FF40072A3F89021934B954AC3F80F
:101880008C21914B4FF40062A3F888218E4B914A32
:10189000C3F884218C4B4FF48052A3F878218A4BF3
:1018A0008C4AC3F87421884B4FF40052A3F880216E
:1018B000854B884AC3F87C21834B1722C3F89421B7
:1018C000814B022283F800237F4B834AC3F8D8223E
:1018D0007D4B4FF48062A3F8F8227B4B7F4AC3F81C
:1018E000F422794B4FF40062A3F8F022764B7B4A46
:1018F000C3F8EC22744B4FF48052A3F8E022724BF1
:10190000764AC3F8DC22704B4FF40052A3F8E82269
:101910006D4B724AC3F8E4226B4B2822C3F8FC22B9
:10192000694B032283F86824674B6B4AC3F8402451
:10193000654B4022A3F86024634B694AC3F85C24DA
:10194000614B8022A3F858245F4B654AC3F85424A6
:101950005D4B4FF48072A3F848245B4B604AC3F898
:101960004424594B4FF40072A3F85024564B5C4A60
:10197000C3F84C24544B1722C3F864247B69013309
:101980007B617B69032B7FF749AF00233B610DE04F
:101990003B694FF4B47202FB03F308334A4A134421
:1019A000184601F08BFD3B6901333B613B69032B1A
:1019B000EEDD0023FB607EE0FB684FF4B47202FBB7
:1019C00003F30833404A13447B600A23BB60786802
:1019D00001F099FDFB68184600F090FA7968012043
:1019E00000F0AAFA0346002B0AD1374AFB684FF4ED
:1019F000B47101FB03F31344043301221A7010E0A5
:101A0000FB684FF4B47202FB03F308332E4A13440D
:101A1000184601F053FD052001F047FCBB68013B6F
:101A2000BB60BB68002B0BDD274AFB684FF4B47129
:101A300001FB03F3134404331B78DBB2012BCDD13C
:101A4000BB68002B01DC01233AE0786801F06DFDF2
:101A50007A680221234801F039FB234B234A2449A9
:101A6000002000F0E9FF7968224801F043FE7B681E
:101A7000214A00210F2000F03EFF79681F4800F046
:101A8000CBFB796844F2430000F046FD796844F2EC
:101A9000430000F052FD7968002001F007FB7968EF
:101AA000012001F0F3F879684FF4006001F0C8FB01
:101AB000FB680133FB60FB68032B7FF77DAF0023DE
:101AC00018461837BD4680BD600200240008002477
:101AD000000402580010025888080024000C025824
:101AE0000008025800D02724071E0008E51D000842
:101AF000911D0008792A000800FF2724080000240F
:101B00002DE9B04388B000AF78604FF000024FF08D
:101B10000003C7E9062307F10C037968184600F0B3
:101B200092FD04237B611FE0D7E906014FF000021C
:101B30004FF000030B0243EA10630202C7E90623D9
:101B400007F10C027B6913441B78DBB200221C46B0
:101B50001546D7E9062342EA040843EA0509C7E91E
:101B600006897B69013B7B617B69002BDCDAD7E965
:101B70000623104619462037BD46BDE8B08380B520
:101B800086B000AF03463960FB800423FB75FB7D04
:101B90009BB2013399B2FB889B009AB207F1100007
:101BA0003B6800F0EFFCB7F811309BB2FB81B7F84F
:101BB00013309BB2BB81B7F90C3007EE903AF8EEC8
:101BC000E77AB7F90E3007EE103AB8EEC77AF0EEC2
:101BD000470AB0EE670A0AF02FFCF0EE407AB0EE4A
:101BE000670A1837BD4680BD80B5AEB000AFF8605B
:101BF000C7E90023FB6893F8283087F8B730FB6803
:101C000003F59E73C7F8B03007F1A703F9681846CB
:101C100001F0EFFA07F19403F968184600F0CFFCE1
:101C2000B7F8A43003F03F0307EE903AB8EEE77A36
:101C3000DFED556AC7EE267AB7EEE77AB0EE470BCE
:101C40000AF0FCFBB0EE407BFCEEC77B17EE903A4F
:101C50009AB2B7F8A4309B099BB21344A7F8AE30F0
:101C6000B7F8AE30F9681846FFF789FF87ED2A0A02
:101C7000D7F8B03001229A76B7F89620D7F8B0306E
:101C8000DA81B7F89A20D7F8B0301A82B7F89C20DA
:101C9000D7F8B0305A82D7F8B030DB891A46D7F877
:101CA000B0301B8A1344D7F8B020528A13441A4626
:101CB000D7F8B0305A61D7F8B030D7F8A8209A607A
:101CC000D7F8B030B7F8AE209A81D7F8B03097F88F
:101CD000B7201A7097F8A720D7F8B0305A703A6832
:101CE000D7F8B0305A60B7F89820D7F8B0301A83D8
:101CF000B7F89E20D7F8B0301A84B7F8A020D7F8EC
:101D0000B0309A83B7F8A220D7F8B030DA83D7F88A
:101D1000B030DB89FF2B04D8D7F8B03000229A7698
:101D200024E0FB68D7F8A820C3F8342197F8A7303F
:101D300007EE903AF8EE677AB7EEE76A9FED0E5B32
:101D400086EE057B9FED0E6B27EE067BF7EEC77BDD
:101D5000FB68C3ED4E7A0D4B1A68FB68C3F830215F
:101D6000FB6893F828301846FEF78AFCB837BD4662
:101D700080BD00BFAFF300800000000000005040B5
:101D80004AD8124DFB21094000007C42400A002441
:101D900080B584B000AF786039604FF000024FF03A
:101DA0000003C7E902233968002001F03DF93968D2
:101DB000002001F0F2F83B6803F1AC007B689988E1
:101DC0003B68002200F0C9FB3868FFF799FEC7E9BD
:101DD0000201D7E902233868FFF706FF00BF10377A
:101DE000BD4680BD80B582B000AF7860396039688B
:101DF000002001F019F93968002001F0CEF800BF89
:101E00000837BD4680BD80B582B000AF78603960CC
:101E10003968002001F008F93968002001F0BDF8A8
:101E200000BF0837BD4680BD80B584B000AF786084
:101E300001F006FDF86009E001F002FD0246FB68D2
:101E4000D31A7A689A4201D2032321E00221124870
:101E500002F06AF80346002B16D14FF400610F48D8
:101E600002F062F80346002B0ED14FF400610C48DB
:101E700002F05AF80346002B06D18021094802F0EF
:101E800053F80346002BD7D0012001F00EFA0023AF
:101E900018461037BD4680BD000402580010025895
:101EA000000C025800080258DFF834D0FFF7F8F9A8
:101EB0000C480D490D4A002302E0D458C4500433A5
:101EC000C4188C42F9D30A4A0A4C002301E013607B
:101ED0000432A242FBD308F053FCFEF763FE7047C6
:101EE0000000082400000024E801002490CC000831
:101EF000E80100247C0C0024FEE7000080B483B0DD
:101F000000AF78607B68032B02D94FF0FF3309E004
:101F10007A681346DB009B1ADB00054A1344054A26
:101F20001360002318460C37BD465DF8047B7047EC
:101F3000440A00241400002490B587B000AF7860F4
:101F400039600023FB8200233B618C4B1B6800221D
:101F50001A758A4B1B6800225A75884B1B68002231
:101F6000DA82864B1B6800229A62844B1B6800222F
:101F7000DA62824B1B6800221A63804B1B680022C6
:101F80005A63386800F03AF903467D4A934202D01A
:101F90004FF0FF332CE17B6803F00203002B02D1EA
:101FA000386801F0DDF87B6803F00203002B04D0F1
:101FB0007B6803F0F803002B03D13968002000F0A0
:101FC000DFFE3B6804220021242000F05DFC7B68DA
:101FD00003F00203002B18D13968042000F0B6FC8E
:101FE00038613B69DBB2002B21D03B680222122111
:101FF0002D2000F049FC614B1B68DA8A5F4B1B689F
:1020000042F4805292B2DA8211E03A6830212820FC
:1020100000F0D9FB0346B3F1883F08D0574B1B684B
:10202000DA8A564B1B6842F4805292B2DA827B689D
:1020300003F00203002B09D07B6803F00203002B9E
:1020400012D07B6803F00803002B0DD039681E20E6
:1020500000F07CFC0346FB82FB8A1B0A9AB2474BCA
:102060001B68D2B2DA7203E0444B1B680022DA72BA
:102070007B6803F00203002B0CD1FB8A03F01F03E3
:10208000002B01D11023FB82FB8ADBB23968184692
:1020900001F096F87B6803F01003002B08D0374B53
:1020A0001C683968062000F051FC0346236003E0F9
:1020B000324B1B6800221A607B6803F02003002B60
:1020C00008D02E4B1C683968072000F03FFC0346FF
:1020D000636003E0294B1B6800225A607B6803F0B1
:1020E0004003002B09D03968082000F02FFC02467D
:1020F000224B1B68D2B21A7203E0204B1B680022ED
:102100001A727B6803F08003002B09D0396809201C
:1021100000F01CFC0246194B1B68D2B25A7203E055
:10212000164B1B6800225A727B6803F00203002BD7
:1021300028D17B6803F00103002B0CD0386800F035
:1021400060FC0E4B1B68DA8A0C4B1B6842F4006281
:1021500092B2DA8224E03A680521362000F05EFB74
:102160000346FB81FB8923F40073FB81FA893B68FA
:102170000521362000F09FFB12E000BF1400002470
:102180003001CADE7B6803F00403002B08D11A4B30
:102190001B68DA8A184B1B6842F4006292B2DA823A
:1021A0003968012000F0ECFD3B6800220A212C2058
:1021B00000F06AFB104B1C683A680021042000F014
:1021C00002FB034623610C4B1B681B691B0CDAB234
:1021D000094B1B6802F00302D2B29A72064B1C68CC
:1021E0003A680021082000F0EEFA0346E36000237D
:1021F00018461C37BD4690BD1400002480B582B03F
:1022000000AF78607A680021002000F0DCFA034615
:1022100018460837BD4680BD80B586B000AF7860EF
:1022200039600023FB750023BB757B681B78FB744A
:102230007B685B791A46AB4B33F81230BB827B6804
:102240005B78013BBB74FB7C042B02D0FB7C072B2F
:1022500001D1012300E000237B747B68DB79002B34
:102260000BD1A14B1B681A699F4B1B6842F480027B
:102270001A61BB8ADB08BB8207E09B4B1B681A69AB
:10228000994B1B6822F480021A61974B1B687A688D
:10229000127A9A72944B1B681A69934B1B6822F44A
:1022A00040321A61904B1B6819697B681B7A1B04CA
:1022B00003F440328C4B1B680A431A618A4B1B683B
:1022C0001A693B680021042000F015FBBA8A3B68BC
:1022D00042F604012E2000F0EEFABB7C3968184665
:1022E00000F06BFBFB7C814AD35C1A46804B53F8B1
:1022F00022203B6807212B2000F0FDFAFB7C7B4A63
:10230000D35C1A467B4B9A5C3B680B212B2000F078
:10231000BBFAFB7C754AD35C1A46774B9A5C3B68E8
:102320000B212A2000F0B0FA7B7C744AD25C3B6817
:102330000B21282000F0A8FAFB7C6C4AD35C1A46DB
:102340006F4B53F822203B680C21282000F0D3FA71
:102350007B68DB7918467B689B791946694A43009C
:102360000B4432F813203B680221272000F0A3FA27
:10237000BB7C654A32F813203B680421272000F01B
:102380009AFA7B68DB79002B06D13B686422062130
:10239000272000F090FA1CE07B689B78042B0CD17E
:1023A0003B6810220621272000F085FA3B681022A6
:1023B0002621272000F068FA0BE03B682022062146
:1023C000272000F078FA3B6828222621272000F0F9
:1023D0005BFABB7C7A68D27811464C4A9B000B446E
:1023E00052F823203B680821272000F084FA7B68FC
:1023F0005B89002B03D17B6841F241025A817B68E3
:102400005A893B682021272000F055FA404B1A6872
:102410003B680C21232000F06EFABB7C3C4A5B0039
:1024200013449A883B680421232000F044FA7B6817
:102430009B79002B0DD07B68DB791A46354B9A5C73
:102440003B680021212000F01FFA0323FB750123C4
:10245000BB75FB7C03F00F02FB7C1B01DBB21A4354
:102460007B685B789B0403F440231A43FB7D1B05C8
:1024700003F440131A43BB7D5B0403F400331A4397
:102480007B681B799B0503F0F8631A437B685B79D3
:10249000DB061343FB603B68FA6800211F2000F055
:1024A0002AFA7B689A787B685B781343DBB219045D
:1024B0007B68DB795A030C4B1B680A43DA600A4BD2
:1024C0001B68DA683B680021082000F014FA3B68BA
:1024D000422200210D2000F0D7F900BF1837BD4679
:1024E00080BD00BF78C8000814000024F0C70008B1
:1024F00010C8000828C8000830C8000838C80008FC
:10250000F8C7000848C8000854C8000858C80008A0
:102510003CC8000844C8000880B582B000AF03463C
:102520003960FB80FA883B6841F604012E2000F0F8
:10253000C2F900BF0837BD4680BD80B582B000AF8C
:1025400003463960FB80FA883B680021182000F0C0
:10255000B2F900BF0837BD4680BD80B586B002AF76
:10256000F8607B600B467B8113463B817A89398911
:102570007B680093FB68112000F0CFF800BF103794
:10258000BD4680BD80B586B002AFF8607B600B466B
:102590007B8113463B817968072000F0F1FB7A8943
:1025A00039897B680093FB68252000F0B6F87968CC
:1025B000082000F0E5FB00BF1037BD4680BD80B5A8
:1025C00084B002AF786039603A680521152000F0C8
:1025D00025F903461A467B681A823A6800212E20A4
:1025E00000F01CF903461A467B681A807B681A1DA6
:1025F0003B680093134608220021122000F08DF85A
:102600003A680721152000F009F903461A467B684D
:102610005A803A680021102000F0D5F803461B0DBF
:102620009BB2C3F30B039AB27B689A813A682C2160
:10263000272000F0F3F803461A467B68DA8100BFD2
:102640000837BD4680BD80B584B002AF7860396080
:102650003B6800937B6805220021152000F05DF89F
:1026600000BF0837BD4680BD80B588B002AFBA60F4
:102670007B600346FB810B46BB8100237B61BB89EA
:10268000002B0CD1FB89DAB27B69591C796162F0AD
:102690007F02D2B218333B4403F8082C2FE0FB89A9
:1026A000DAB27B69591C796162F03F02D2B2183309
:1026B0003B4403F8082CBB897F2B09D87B695A1C43
:1026C0007A61BA89D2B218333B4403F8082C16E079
:1026D000BB89DAB27B69591C796162F07F02D2B2A0
:1026E00018333B4403F8082CBB89DB0999B27B699A
:1026F0005A1C7A61CAB218333B4403F8082C7B6930
:1027000098B207F110013B6A00937B68BA6800F049
:10271000D7FD00BF1837BD4680BD80B588B002AF79
:10272000BA607B600346FB810B46BB8100237B6163
:10273000BB89002B09D17B695A1C7A61FA89D2B214
:1027400018333B4403F8082C2FE0FB89DAB27B698D
:10275000591C796142F04002D2B218333B4403F86D
:10276000082CBB897F2B09D87B695A1C7A61BA89EE
:10277000D2B218333B4403F8082C16E0BB89DAB216
:102780007B69591C796162F07F02D2B218333B44F5
:1027900003F8082CBB89DB0999B27B695A1C7A6162
:1027A000CAB218333B4403F8082C7B6998B207F18E
:1027B00010013B6A00937B68BA6800F0B5FD00BF6A
:1027C0001837BD4680BD80B58AB002AFF860B960E9
:1027D0007A600023FB61FB6898B2BB6899B207F18D
:1027E00014027B68009313460422FFF796FF03232D
:1027F000BB610BE0FB691B0207F11401BA690A44D3
:1028000012781344FB61BB69013BBB61BB69002BC0
:10281000F0DAFB6918462037BD4680BD80B588B028
:1028200002AFF860B9607A600023FB82FB6898B25F
:10283000BB6899B207F114027B6800931346022229
:10284000FFF76BFF7B7D1B029BB23A7D1344FB823B
:10285000FB8A18461837BD4680BD80B588B002AFE8
:10286000F860B9607A60FB6898B2BB6899B207F10A
:1028700017027B68009313460122FFF74EFFFB7D92
:1028800018461837BD4680BD80B586B002AFF860E7
:10289000B9603B601346FB71FB6898B2BB6899B2A4
:1028A000FA1D3B68009313460122FFF7DDFE00BFCF
:1028B0001037BD4680BD80B588B002AFF860B96002
:1028C0003B601346FB80FB88DBB23B75FB881B0A31
:1028D0009BB2DBB27B75FB6898B2BB6899B207F11B
:1028E00014023B68009313460222FFF7BDFE00BFAF
:1028F0001837BD4680BD80B588B002AFF860B960BA
:102900007A603B6000237B610DE07B68D9B207F100
:1029100010027B6913440A461A707B681B0A7B60AD
:102920007B6901337B617B69032BEEDDFB6898B229
:10293000BB6899B207F110023B680093134604226A
:10294000FFF792FE00BF1837BD4680BD80B584B04A
:1029500000AF03463960FB80FA883B6804212D20D4
:10296000FFF7A9FF3B68032206212D20FFF78CFF0C
:102970003B68002206212D20FFF786FF3A680A21D6
:102980002D20FFF720FFF860FB6818461037BD4682
:1029900080BD80B582B000AF78607B6800220221E4
:1029A0002C20FFF771FF7B68022202212C20FFF709
:1029B0006BFF00BF0837BD4680BD80B582B000AF59
:1029C000786039603B686D2240F606012E20FFF7E3
:1029D0005BFF7B68002B08D03B6840F2076241F642
:1029E00006012E20FFF767FF07E03B6841F2076210
:1029F00041F606012E20FFF75EFF00BF0837BD46F7
:102A000080BD80B582B000AF786079680E2000F09C
:102A1000B7F97B684FF4004206212D20FFF74BFFEA
:102A2000012000F042FC7968012000F0A9F900BF04
:102A30000837BD4680BD000080B485B000AFF860A7
:102A4000B9607A603B600B4B1B68FA689A62094B6D
:102A50001B68BA68DA62074B1B687A681A63054B11
:102A60001B683A685A6300BF1437BD465DF8047BA3
:102A7000704700BF1400002490B58BB002AF78609F
:102A8000804B1C687A6800210F20FFF79CFE0346EC
:102A9000E361E369BB61BB6903F48043002B76D03B
:102AA0007B684FF4D64200210F20FFF724FF754BBF
:102AB0001B68002283F824207A6800211020FFF789
:102AC000ADFE0346FB82FB8AC3F30903FB836D4B18
:102AD0001B689B7A002B03D1FB8B03F07F03FB83E6
:102AE000684B1B68FA8B1A84B7F91630002B0ADA88
:102AF000644B1B6893F82420624B1B6842F0010270
:102B0000D2B283F824205F4B1B6803F122027B685A
:102B100000931346022200211120FFF7FEFDBB693E
:102B200003F00803002B19D0564B1B6893F8223092
:102B300003F02003002B11D17B68082200210F2015
:102B4000FFF7D9FE4F4B1B68DA694E4B1B6822F02A
:102B50000802DA614B4B1B6800225A75494B1B680F
:102B6000DB6A002B08D0474B1B68DB6A454A1268BA
:102B70001C32796810469847424B1B681B7D002B1E
:102B800005D07B68012203210D20FFF77DFEBB6984
:102B900003F08003002B23D07B68F82200210F2054
:102BA000FFF7A9FEBB6903F00803002B0AD0354BE1
:102BB0001B685B7D002B05D0786800F097F978687A
:102BC00000F0BAFA2F4B1B689B6A002B08D02D4BE4
:102BD0001B689B6A2B4A12681C327968104698471A
:102BE000BB6903F40813002B1ED07B684FF4081256
:102BF00000210F20FFF77FFE224B1B6800225A7531
:102C0000786800F073F9786800F096FA1D4B1B683D
:102C10001B6B002B08D01B4B1B681B6B194A1268DF
:102C20001C32796810469847BA69174B1340002B3D
:102C30001AD07B68144A00210F20FFF75CFE114B6D
:102C40001B6800225A75786800F076FA0D4B1B68F5
:102C50005B6B002B08D00B4B1B685B6B094A12683F
:102C60001C327968104698477A6800210420FFF7E3
:102C7000AAFD3861FB680133FB6000BF2437BD4605
:102C800090BD00BF140000240090052480B584B0DE
:102C900000AF03463960FB71FB7903F00103002BA1
:102CA00059D03A6800212620FFF78DFDF860FB68B7
:102CB00023F47053FB60FB6843F4A053FB603B6854
:102CC000FA6800212620FFF716FE3A680021262028
:102CD000FFF779FDF860FB6823F44353FB60FB6862
:102CE00043F48253FB603B68FA6800212620FFF71B
:102CF00002FE3A6800213620FFF765FDF860FB68A8
:102D000043F40403FB603B68FA6800213620FFF7B8
:102D1000F2FD4FF48873FB60FB7903F00203002B94
:102D200003D0FB6843F47023FB603B68FA682821FA
:102D30003620FFF7E0FDFB7903F00203002B1AD0E9
:102D4000FB6823F47023FB603B68FA682821362077
:102D5000FFF7D1FD0FE03A6800212620FFF733FD91
:102D6000F860FB6823F47053FB603B68FA6800214D
:102D70002620FFF7C0FD00BF1037BD4680BD000014
:102D800080B586B002AF7860396007F10C023B680D
:102D900000931346022200213620FFF7BEFC7B6819
:102DA0000E2B76D801A252F823F000BFF92D0008AF
:102DB000E92D00080F2E0008932E0008932E00081E
:102DC000932E0008932E0008252E0008452E00089B
:102DD000932E0008932E00085B2E0008672E000833
:102DE000732E0008892E000800233B737B7B23F0A1
:102DF0000103DBB27B734DE03B7B5BB223F003034B
:102E00005BB243F001035BB2DBB23B7342E03B7B5E
:102E10005BB223F003035BB243F002035BB2DBB2AD
:102E20003B7337E03B7B5BB223F04C035BB243F078
:102E300048035BB2DBB23B737B7B63F07F03DBB2A7
:102E40007B7327E03B7B23F04C03DBB23B737B7B44
:102E500003F07F03DBB27B731CE07B7B43F0020358
:102E6000DBB27B7316E07B7B23F00203DBB27B7368
:102E700010E03B7B5BB223F030035BB243F02003F6
:102E80005BB2DBB23B7305E001233B7303237B732F
:102E900000E000BF07F10C023B68009313460122DB
:102EA00000213620FFF7E0FB07F10C035A1C3B68BA
:102EB00000931346012201213620FFF7D5FB00BF06
:102EC0001037BD4680BD00BF80B582B000AF7860CE
:102ED00079680020FFF754FF7B6800220421362028
:102EE000FFF7E9FC00BF0837BD4680BD80B584B060
:102EF00000AF78607A6800210E20FFF764FCF8606C
:102F0000786800F0AFF9B8607B68002200210E20DD
:102F1000FFF7F1FC7B68402200210D20FFF7B4FC95
:102F20007B680D4A00210F20FFF7E5FC786800F070
:102F300017F87B68FA6800210E20FFF7DCFC79683F
:102F4000B86800F0A3F9054B1B6800225A7500BF52
:102F50001037BD4680BD00BFF8FF272414000024B1
:102F600080B584B000AF78607A6803210F20FFF746
:102F700074FC0346FB73FA7BFB7B5B00534003F05E
:102F80008003002B05D07B68012203210D20FFF771
:102F90007BFC00BF1037BD4680BD80B584B000AF5C
:102FA000786039607B6803F00403002B02D1386835
:102FB000FFF7D6FF4FF48073FB817B6803F00103BA
:102FC000002B03D0FB8943F40073FB81FA893B6833
:102FD00000210D20FFF76FFC7B6803F00103002B3D
:102FE0001DD03A6803210F20FFF737FC03467B739F
:102FF0007B7B03F00803002B11D03868FFF776FFC6
:103000007B6803F00203002B06D13B684FF480720B
:1030100000210D20FFF74FFC4FF0FF3300E00023AD
:1030200018461037BD4680BD80B584B000AF03465A
:103030003960FB803A6803210420FFF70EFC034649
:10304000FB73FB88002B18D0FA883B6800210C200A
:10305000FFF731FCFB7B43F01003FB73124B1B6843
:103060001A69114B1B6842F080521A61FA7B3B6867
:1030700003210420FFF708FC11E0FB7B23F0100381
:10308000FB73094B1B681A69074B1B6822F08052BF
:103090001A61FA7B3B6803210420FFF7F5FB00BFB0
:1030A0001037BD4680BD00BF1400002480B582B03B
:1030B00000AF03463960FB80FA883B682421272053
:1030C000FFF7F9FB00BF0837BD4680BD80B586B06D
:1030D00000AFF8600B467A60FB72786800F0C2F8C7
:1030E0003861FB7A022B06D17B68FA6800210E203A
:1030F000FFF701FC18E07A6800210E20FFF763FB60
:103100007861FB7A012B04D17A69FB6813437B61F8
:1031100004E0FB68DB437A6913407B617B687A6972
:1031200000210E20FFF7E7FB7968386900F0AEF860
:1031300000BF1837BD4680BD80B582B000AF786053
:103140007B68E02203213620FFF79EFB7B68F0229C
:1031500003213620FFF798FB00BF0837BD4680BD2E
:1031600080B582B000AF78607868FFF7ADFE7B680D
:10317000002200212C20FFF79EFB7B680022062105
:103180002C20FFF781FB7868FFF703FC7B680022A7
:1031900003213620FFF778FB012000F086F87B68DA
:1031A000F02203213620FFF76FFB044B1B6800223F
:1031B0005A7500BF0837BD4680BD00BF140000240B
:1031C00080B584B000AF03463960FB7197F90730D2
:1031D00003F01F035BB243F060035BB2FB73FA7B47
:1031E0003B680E212B20FFF74FFB00BF1037BD4679
:1031F00080BD80B586B002AF786039604FF00002C4
:103200004FF00003C7E9022307F108023B6800936F
:103210001346052200211420FFF77FFAD7E90201A7
:103220004FF000024FF000030A000023D3B203F076
:103230007F03DAB27B681A7000BF1037BD4680BDCD
:1032400080B584B002AF786039603A1D3B68009366
:103250001346042200212420FFF706FA00BF083796
:10326000BD4680BD80B584B000AF7860786800F05E
:1032700021FA0346FB60FB68002B02D0786800F05F
:10328000FDF9FB6818461037BD4680BD80B582B099
:1032900000AF786039607B68002B02D0386800F09E
:1032A000FBF900BF0837BD4680BD80B582B000AFD6
:1032B0007860786800F0D9F800BF0837BD4680BD57
:1032C0002DE9704F82B083468A4690460A9E994601
:1032D00030463568FFF7C6FF0190284604F074FBBE
:1032E00001280446F9D131890022706800F034FECB
:1032F0005A4651464FF0FF33284603F005FF4FF082
:10330000FF3349461FFA88F2284603F0FDFE2246A5
:103310003189706800F020FE01983146FFF7B6FF52
:10332000002002B0BDE8708F2DE9704F82B0834657
:103330008A4690460A9E994630463568FFF792FFC6
:103340000190284604F040FB01280446F9D1318958
:103350000022706800F000FE5A4651464FF0FF33DD
:10336000284603F0D1FE4FF0FF3349461FFA88F29A
:10337000284604F0B7F822463189706800F0ECFD69
:1033800001983146FFF782FF002002B0BDE8708F40
:1033900080B483B000AF0346FB80B7F90630002B42
:1033A0000BDBFB8803F01F020749B7F906305B0906
:1033B000012000FA02F241F8232000BF0C37BD467D
:1033C0005DF8047B704700BF00E100E080B483B08B
:1033D00000AF0346FB80B7F90630002B12DBFB88F9
:1033E00003F01F020A49B7F906305B09012000FA11
:1033F00002F2203341F82320BFF34F8F00BFBFF309
:103400006F8F00BF00BF0C37BD465DF8047B70476F
:1034100000E100E080B485B000AF0346FB800023EC
:10342000FB6012E00023BB6004E000BF00BFBB688C
:103430000133BB60BB68012BD4BF01230023DBB287
:10344000002BF2D1FB680133FB60FB88FA689A42DB
:10345000B4BF01230023DBB2002BE3D100231846C5
:103460001437BD465DF8047B704780B582B000AF6D
:103470007860786800F0F0F900BF0837BD4680BD7D
:1034800080B483B000AF78600B4A7B685B0952F868
:1034900023207B6803F01F0322FA03F303F00103E8
:1034A000002B14BF01230023DBB218460C37BD46A6
:1034B0005DF8047B704700BF00E100E080B582B09A
:1034C00000AF78607B6858697B681B8B00221946C7
:1034D00000F042FD0120FFF79DFF7968002000F019
:1034E00007F80220FFF7C1FF00BF0837BD4680BDC7
:1034F00080B483B000AF7860396000BF0C37BD4640
:103500005DF8047B704780B582B000AF78607B685F
:103510001B684FF08042DA617B681B68184603F035
:10352000CFFC00BF0837BD4680BD80B582B000AF7C
:1035300078607B681B684FF08052DA617B681B689B
:10354000184603F0BDFC00BF0837BD4680BD000033
:1035500080B586B000AF0346FB80FB8893FAA3F3E7
:10356000B3FA83F3FB75344AFB7D9B08DBB202336D
:1035700052F823303B61FB7D03F003039B003A6963
:1035800022FA03F3FB73FB88012B09D1FB7B012B90
:1035900006D10020FEF7B2FC284800F059F846E0BA
:1035A000FB88B3F5007F09D1FB7B042B06D10120FA
:1035B000FEF7A4FC224800F04BF838E0FB88B3F596
:1035C000806F09D1FB7B032B06D10220FEF796FC0E
:1035D0001C4800F03DF82AE0FB88402B09D1FB7B1A
:1035E000022B06D10320FEF789FC174800F030F8C3
:1035F0001DE0FB88022B02D1FB7B012B13D0FB8843
:10360000B3F5006F02D1FB7B042B0CD0FB88B3F524
:10361000006F02D1FB7B032B05D0FB88802B06D1EA
:10362000FB7B022B03D1094B01221A60FFE700BF8D
:103630001837BD4680BD00BF000400586802002452
:10364000D003002438050024A0060024240B002405
:1036500080B582B000AF786003E0074B1B687868E4
:103660009847786800F034F80346002BF5D100BF86
:1036700000BF0837BD4680BD280B002480B582B04E
:1036800000AF78607B685B6A1BB21846FFF79EFE4E
:1036900000BF0837BD4680BD80B582B000AF7860FE
:1036A0007B685B6A1BB21846FFF772FE00BF0837E3
:1036B000BD4680BD80B582B000AF78607B685B6A34
:1036C0001846FFF7DDFE034618460837BD4680BDA5
:1036D00080B582B000AF78607B68DA697B681B8C4C
:1036E0001946104600F020FC034618460837BD4630
:1036F00080BD000080B584B000AF78603960386864
:10370000FFF7D8FF0346FB73FB7B002B02D0386822
:10371000FFF7B4FF064A7B681360FB7B002B02D0E7
:103720003868FFF7B9FF00BF1037BD4680BD00BF46
:10373000280B002480B582B000AF032000F08CF984
:1037400001F0BCFB0246154B9B691B0A03F00F03FB
:103750001349CB5C03F01F0322FA03F37B600F4B8A
:103760009B6903F00F030E4AD35C03F01F037A68D2
:1037700022FA03F30B4A13600B4A7B6813600F2095
:1037800000F014F80346002B01D0012302E0FDF7FE
:1037900079FC002318460837BD4680BD0044025816
:1037A000E0C70008040000240000002480B582B0B7
:1037B00000AF7860154B1B78002B01D1012321E06D
:1037C000134B1A68114B1B7819464FF47A73B3FBED
:1037D000F1F3B2FBF3F3184600F071F90346002B46
:1037E00001D001230EE07B680F2B0AD800227968F4
:1037F0004FF0FF3000F03BF9064A7B68136000236E
:1038000000E0012318460837BD4680BD1C00002497
:10381000000000241800002480B400AF064B1B7881
:103820001A46064B1B681344044A136000BFBD468A
:103830005DF8047B704700BF1C0000242C0B0024A3
:1038400080B400AF034B1B681846BD465DF8047B8F
:10385000704700BF2C0B002480B584B000AF7860A7
:10386000FFF7EEFFB8607B68FB60FB68B3F1FF3FDA
:1038700005D00A4B1B781A46FB681344FB6000BF57
:10388000FFF7DEFF0246BB68D31AFA689A42F7D800
:1038900000BF00BF1037BD4680BD00BF1C00002424
:1038A00080B400AF034B1B681B0C1846BD465DF887
:1038B000047B70470010005C80B485B000AF786076
:1038C0007B6803F00703FB600B4BDB68BB60BA68E7
:1038D0004FF6FF031340BB60FB681A02BB681A4334
:1038E000064B1343BB60044ABB68D36000BF143768
:1038F000BD465DF8047B704700ED00E00000FA056E
:1039000080B400AF044BDB681B0A03F007031846C2
:10391000BD465DF8047B704700ED00E080B483B0E5
:1039200000AF0346FB80B7F90630002B0BDBFB88AA
:1039300003F01F020749B7F906305B09012000FABE
:1039400002F241F8232000BF0C37BD465DF8047B2E
:10395000704700BF00E100E080B483B000AF0346D1
:103960003960FB80B7F90630002B0ADB3B68DAB21E
:103970000C49B7F906301201D2B20B4483F8002388
:103980000AE03B68DAB20849FB8803F00F03043B06
:103990001201D2B20B441A7600BF0C37BD465DF857
:1039A000047B704700E100E000ED00E080B489B0E6
:1039B00000AFF860B9607A60FB6803F00703FB6151
:1039C000FB69C3F10703042B28BF0423BB61FB6918
:1039D0000433062B02D9FB69033B00E000237B6123
:1039E0004FF0FF32BB6902FA03F3DA43BB681A40B7
:1039F0007B699A404FF0FF317B6901FA03F3D943A9
:103A00007B680B40134318462437BD465DF8047BA2
:103A10007047000080B582B000AF78607B68013BE2
:103A2000B3F1807F01D301230FE00A4A7B68013B99
:103A300053600F214FF0FF30FFF78EFF054B002240
:103A40009A60044B07221A60002318460837BD46C7
:103A500080BD00BF10E000E080B582B000AF7860AC
:103A60007868FFF729FF00BF0837BD4680BD80B5E5
:103A700086B000AF0346B9607A60FB81FFF740FF74
:103A800078617A68B9687869FFF790FF0246B7F9FC
:103A90000E3011461846FFF75FFF00BF1837BD46CE
:103AA00080BD80B582B000AF0346FB80B7F9063019
:103AB0001846FFF733FF00BF0837BD4680BD80B50D
:103AC00082B000AF78607868FFF7A4FF034618461D
:103AD0000837BD4680BD000080B400AFBFF35F8FE4
:103AE00000BF074B5B6A064A23F480335362054BE1
:103AF00000225A6000BFBD465DF8047B704700BFDE
:103B000000ED00E090ED00E080B483B000AF78609D
:103B10000B4A7B6843F0010353600A4B5B6A094A16
:103B200043F480335362BFF34F8F00BFBFF36F8FF7
:103B300000BF00BF0C37BD465DF8047B704700BF77
:103B400090ED00E000ED00E080B483B000AF78605D
:103B50007B685A781B4B9A601A4B1B69194A23F0F1
:103B600001031361174A7B685B68D3607B681B7B2A
:103B70001A077B68DB7A1B061A437B689B7ADB0497
:103B80001A437B685B7B9B041A437B689B7B5B04CB
:103B90001A437B68DB7B1B041A437B685B7A1B023E
:103BA0001A437B681B7A5B0013437A6812781146CC
:103BB000044A0B43136100BF0C37BD465DF8047B1C
:103BC000704700BF90ED00E080B489B000AF78602E
:103BD00039600023FB61894B7B6194E13B681A6883
:103BE0000121FB6901FA03F313403B613B69002BA0
:103BF00000F086813B685B6803F00303012B05D06E
:103C00003B685B6803F00303022B30D17B689B6841
:103C1000BB61FB695B00032202FA03F3DB43BA6971
:103C20001340BB613B68DA68FB695B0002FA03F38F
:103C3000BA691343BB617B68BA699A607B685B6849
:103C4000BB610122FB6902FA03F3DB43BA6913404B
:103C5000BB613B685B681B0903F00102FB6902FA68
:103C600003F3BA691343BB617B68BA695A603B6866
:103C70005B6803F00303032B17D07B68DB68BB6131
:103C8000FB695B00032202FA03F3DB43BA691340CA
:103C9000BB613B689A68FB695B0002FA03F3BA698F
:103CA0001343BB617B68BA69DA603B685B6803F009
:103CB0000303022B23D1FB69DA087B68083253F82F
:103CC0002230BB61FB6903F007039B000F2202FA5D
:103CD00003F3DB43BA691340BB613B681A69FB69B4
:103CE00003F007039B0002FA03F3BA691343BB61B5
:103CF000FB69DA087B680832B96943F822107B68EF
:103D00001B68BB61FB695B00032202FA03F3DB4320
:103D1000BA691340BB613B685B6803F00302FB694F
:103D20005B0002FA03F3BA691343BB617B68BA69AB
:103D30001A603B685B6803F44033002B00F0E080BE
:103D40002F4BD3F8F4302E4A43F00203C2F8F4307C
:103D50002B4BD3F8F43003F00203FB60FB68294AD5
:103D6000FB699B08023352F82330BB61FB6903F007
:103D700003039B000F2202FA03F3DB43BA691340EB
:103D8000BB617B68204A934252D07B681F4A9342B2
:103D900031D07B681E4A93422BD07B681D4A9342E8
:103DA00025D07B681C4A93421FD07B681B4A9342F4
:103DB00019D07B681A4A934213D07B68194A934200
:103DC0000DD07B68184A934207D07B68174A93420C
:103DD00001D109232DE00A232BE0082329E0072342
:103DE00027E0062325E0052323E0042321E0032325
:103DF0001FE002231DE001231BE000BF80000058EC
:103E00000044025800040058000002580004025800
:103E100000080258000C0258001002580014025802
:103E200000180258001C02580020025800240258B2
:103E30000023FA6902F0030292009340BA69134327
:103E4000BB613849FB699B080233BA6941F82320FA
:103E50004FF0B0431B68BB613B69DB43BA69134059
:103E6000BB613B685B6803F48013002B03D0BA6925
:103E70003B691343BB614FF0B042BB6913604FF025
:103E8000B0435B68BB613B69DB43BA691340BB610C
:103E90003B685B6803F40013002B03D0BA693B69ED
:103EA0001343BB614FF0B042BB6953607B695B68F1
:103EB000BB613B69DB43BA691340BB613B685B682C
:103EC00003F40033002B03D0BA693B691343BB6191
:103ED0007B69BA695A607B691B68BB613B69DB43DC
:103EE000BA691340BB613B685B6803F48033002B05
:103EF00003D0BA693B691343BB617B69BA691A6035
:103F0000FB690133FB613B681A68FB6922FA03F322
:103F1000002B7FF463AE00BF00BF2437BD465DF8C1
:103F2000047B70470004005880B485B000AF78600F
:103F30000B467B807B681A697B881340002B02D07C
:103F40000123FB7301E00023FB73FB7B184614374E
:103F5000BD465DF8047B704780B483B000AF7860E5
:103F60000B467B8013467B707B78002B03D07A88CE
:103F70007B689A6103E07B881A047B689A6100BFC2
:103F80000C37BD465DF8047B704780B582B000AF4A
:103F90000346FB804FF0B043D3F88820FB881340E2
:103FA000002B08D04FF0B042FB88C2F88830FB8865
:103FB0001846FFF7CDFA00BF0837BD4680BD0000A8
:103FC00080B582B000AF78607B68002B01D10123FF
:103FD0008BE07B6893F84130DBB2002B06D17B6825
:103FE000002283F840207868FCF75EFD7B6824227D
:103FF00083F841207B681B681A687B681B6822F085
:1040000001021A607B685A687B681B6822F0706244
:104010001A617B681B689A687B681B6822F40042FF
:104020009A607B68DB68012B07D17B689A687B68A4
:104030001B6842F400429A6006E07B689A687B68DD
:104040001B6842F404429A607B68DB68022B08D14B
:104050007B681B685A687B681B6842F400625A6080
:1040600007E07B681B685A687B681B6822F4006263
:104070005A607B681B6859687B681A681D4B0B4344
:1040800053607B681B68DA687B681B6822F4004217
:10409000DA607B681A697B685B6942EA03017B68C6
:1040A0009B691A027B681B680A43DA607B68D969DE
:1040B0007B681A6A7B681B680A431A607B681B6806
:1040C0001A687B681B6842F001021A607B68002254
:1040D0005A647B68202283F841207B6800221A639F
:1040E0007B68002283F84220002318460837BD462B
:1040F00080BD00BF0080000280B483B000AF786054
:1041000039607B6893F84130DBB2202B38D17B6873
:1041100093F84030012B01D1022332E07B68012269
:1041200083F840207B68242283F841207B681B6849
:104130001A687B681B6822F001021A607B681B68A2
:104140001A687B681B6822F480521A607B681B68BF
:1041500019687B681B683A680A431A607B681B68A9
:104160001A687B681B6842F001021A607B68202293
:1041700083F841207B68002283F84020002300E080
:10418000022318460C37BD465DF8047B704780B4A7
:1041900085B000AF786039607B6893F84130DBB25E
:1041A000202B39D17B6893F84030012B01D10223B9
:1041B00033E07B68012283F840207B68242283F867
:1041C00041207B681B681A687B681B6822F001022B
:1041D0001A607B681B681B68FB60FB6823F47063D4
:1041E000FB603B681B02FA681343FB607B681B683B
:1041F000FA681A607B681B681A687B681B6842F063
:1042000001021A607B68202283F841207B6800222B
:1042100083F84020002300E0022318461437BD46EF
:104220005DF8047B7047000080B584B000AF786013
:10423000194BDB6803F00403042B0AD0164BDB6830
:1042400003F007037A689A4201D001231FE000239C
:104250001DE0114BDB6823F007020F497B68134315
:10426000CB60FFF7EDFAF86009E0FFF7E9FA0246E4
:10427000FB68D31AB3F57A7F01D9012307E0064B17
:104280005B6803F40053B3F5005FEED100231846DA
:104290001037BD4680BD00BF0048025880B58CB0C5
:1042A00000AF78607B68002B02D1012300F048BC8E
:1042B0007B681B6803F00103002B00F08880994B9A
:1042C0001B6903F03803FB62964B9B6ABB62FB6A77
:1042D000102B07D0FB6A182B11D1BB6A03F0030324
:1042E000022B0CD18F4B1B6803F40033002B6DD0D5
:1042F0007B685B68002B69D1012300F021BC7B68DF
:104300005B68B3F5803F06D1864B1B68854A43F452
:10431000803313602EE07B685B68002B0CD1814BEF
:104320001B68804A23F4803313607E4B1B687D4AF0
:1043300023F4802313601DE07B685B68B3F5A02F36
:104340000CD1784B1B68774A43F480231360754B7C
:104350001B68744A43F4803313600BE0714B1B6895
:10436000704A23F4803313606E4B1B686D4A23F44C
:10437000802313607B685B68002B13D0FFF760FA23
:10438000786208E0FFF75CFA02467B6AD31A642B76
:1043900001D90323D4E3634B1B6803F40033002BE0
:1043A000F0D014E0FFF74CFA786208E0FFF748FA23
:1043B00002467B6AD31A642B01D90323C0E3594B0D
:1043C0001B6803F40033002BF0D100E000BF7B68D2
:1043D0001B6803F00203002B00F0CA80514B1B69DD
:1043E00003F038033B624F4B9B6AFB613B6A002B37
:1043F00007D03B6A182B56D1FB6903F00303002B4F
:1044000051D1484B1B6803F00403002B05D07B6897
:10441000DB68002B01D1012392E3424B1B6823F0A0
:1044200019027B68DB683F4913430B60FFF708FA0A
:10443000786208E0FFF704FA02467B6AD31A022B7F
:1044400001D903237CE3374B1B6803F00403002BE3
:10445000F0D0FFF725FA034641F20302934217D842
:104460007B681B69402B08D12E4B5B6823F47C339F
:104470002C4A43F4003353607AE02A4B5B6823F400
:104480007C327B681B691B03264913434B606FE03A
:10449000244B5B6823F0FE427B681B691B062149A5
:1044A00013434B6064E07B68DB68002B47D01D4BF7
:1044B0001B6823F019027B68DB681A4913430B6001
:1044C000FFF7BEF9786208E0FFF7BAF902467B6AA7
:1044D000D31A022B01D9032332E3124B1B6803F0DA
:1044E0000403002BF0D0FFF7DBF9034641F203028F
:1044F000934219D87B681B69402B08D1094B5B6834
:1045000023F47C33074A43F40033536030E0054B17
:104510005B6823F47C327B681B691B0301491343EE
:104520004B6025E0004402589A4B5B6823F0FE4242
:104530007B681B691B06974913434B6018E0954B3A
:104540001B68944A23F001031360FFF779F978623E
:1045500008E0FFF775F902467B6AD31A022B01D9EE
:104560000323EDE28B4B1B6803F00403002BF0D117
:104570007B681B6803F01003002B00F0A980854BBB
:104580001B6903F03803BB61824B9B6A7B61BB698B
:10459000082B07D0BB69182B3AD17B6903F00303C2
:1045A000012B35D17B4B1B6803F48073002B05D0A6
:1045B0007B68DB69802B01D00123C1E2FFF770F932
:1045C000034641F20302934217D87B681B6A202BF3
:1045D00008D1704B5B6823F0F8436E4A43F0804388
:1045E000536075E06B4B5B6823F0F8427B681B6A95
:1045F0009B06684913434B606AE0664BDB6823F017
:104600007C527B681B6A1B0662491343CB605FE0E8
:104610007B68DB69002B42D05E4B1B685D4A43F030
:1046200080031360FFF70CF9786208E0FFF708F9E0
:1046300002467B6AD31A022B01D9032380E2554B31
:104640001B6803F48073002BF0D0FFF729F90346B1
:1046500041F20302934217D87B681B6A202B08D1D2
:104660004C4B5B6823F0F8434A4A43F08043536065
:104670002EE0484B5B6823F0F8427B681B6A9B0680
:10468000444913434B6023E0424BDB6823F07C52E8
:104690007B681B6A1B063F491343CB6018E03D4B08
:1046A0001B683C4A23F080031360FFF7C9F8786267
:1046B00008E0FFF7C5F802467B6AD31A022B01D93E
:1046C00003233DE2334B1B6803F48073002BF0D1CE
:1046D0007B681B6803F00803002B36D07B685B699E
:1046E000002B19D02B4B5B6F2A4A43F00103536711
:1046F000FFF7A6F8786208E0FFF7A2F802467B6AA7
:10470000D31A022B01D903231AE2224B5B6F03F069
:104710000203002BF0D018E01E4B5B6F1D4A23F004
:1047200001035367FFF78CF8786208E0FFF788F819
:1047300002467B6AD31A022B01D9032300E2154BF0
:104740005B6F03F00203002BF0D17B681B6803F062
:104750002003002B39D07B689B69002B1CD00D4BAC
:104760001B680C4A43F480531360FFF769F87862C2
:1047700008E0FFF765F802467B6AD31A022B01D9DD
:104780000323DDE1034B1B6803F40053002BF0D03F
:104790001BE000BF004402589B4B1B689A4A23F45D
:1047A00080531360FFF74CF8786208E0FFF748F891
:1047B00002467B6AD31A022B01D90323C0E1924B34
:1047C0001B6803F40053002BF0D17B681B6803F0D7
:1047D0000403002B00F081808C4B1B688B4A43F450
:1047E00080731360FFF72CF8786208E0FFF728F871
:1047F00002467B6AD31A642B01D90323A0E1834BC1
:104800001B6803F48073002BF0D07B689B68012B3E
:1048100006D17D4B1B6F7C4A43F0010313672DE0EB
:104820007B689B68002B0CD1774B1B6F764A23F07B
:1048300001031367744B1B6F734A23F00403136760
:104840001CE07B689B68052B0CD16F4B1B6F6E4A7D
:1048500043F0040313676C4B1B6F6B4A43F0010377
:1048600013670BE0684B1B6F674A23F00103136764
:10487000654B1B6F644A23F0040313677B689B68D6
:10488000002B15D0FEF7DCFF78620AE0FEF7D8FFB8
:1048900002467B6AD31A41F28832934201D903233C
:1048A0004EE1594B1B6F03F00203002BEED014E0D6
:1048B000FEF7C6FF78620AE0FEF7C2FF02467B6A97
:1048C000D31A41F28832934201D9032338E14E4B87
:1048D0001B6F03F00203002BEED17B685B6A002B99
:1048E00000F02D81484B1B6903F03803182B00F0B2
:1048F000BD807B685B6A022B40F09E80424B1B6848
:10490000414A23F080731360FEF79AFF786208E053
:10491000FEF796FF02467B6AD31A022B01D90323C6
:104920000EE1394B1B6803F00073002BF0D1364BBE
:104930009A6A374B13407A68916A7A68D26A120190
:104940000A43314913438B627B681B6B013BC3F302
:1049500008027B685B6B013B5B029BB21A437B687E
:104960009B6B013B1B0403F4FE031A437B68DB6B68
:10497000013B1B0603F0FE43234913430B63224B09
:10498000DB6A214A23F00103D3621F4B5A6B214B90
:1049900013407A68926CD2001B4913434B631A4B45
:1049A000DB6A23F00C027B681B6C17491343CB6254
:1049B000154BDB6A23F002027B685B6C12491343E0
:1049C000CB62114BDB6A104A43F48033D3620E4B47
:1049D000DB6A0D4A43F40033D3620B4BDB6A0A4AAD
:1049E00043F48023D362084BDB6A074A43F0010398
:1049F000D362054B1B68044A43F080731360FEF7D3
:104A00001FFF786211E000BF0044025800480258BE
:104A10000CFCFFFF0700FFFFFEF712FF02467B6A58
:104A2000D31A022B01D903238AE0474B1B6803F0FA
:104A30000073002BF0D082E0434B1B68424A23F006
:104A400080731360FEF7FCFE786208E0FEF7F8FE64
:104A500002467B6AD31A022B01D9032370E03A4B3A
:104A60001B6803F00073002BF0D168E0364B9B6AA3
:104A70003B61354B1B6BFB607B685B6A012B31D064
:104A80003B6903F003027B689B6A9A422AD13B6927
:104A90001B0903F03F027B68DB6A9A4222D1FB6864
:104AA000C3F308027B681B6B013B9A421AD1FB6877
:104AB0005B0A03F07F027B685B6B013B9A4211D17A
:104AC000FB681B0C03F07F027B689B6B013B9A42E7
:104AD00008D1FB681B0E03F07F027B68DB6B013B98
:104AE0009A4201D001232BE0174B5B6BDB08C3F329
:104AF0000C033B617B689B6C3A699A421FD0124B56
:104B0000DB6A114A23F00103D362FEF799FE786253
:104B100000BFFEF795FE02467B6A9342F9D00A4B2E
:104B20005A6B0A4B13407A68926CD20006491343C1
:104B30004B63054BDB6A044A43F00103D362002355
:104B400018463037BD4680BD004402580700FFFFBD
:104B500080B586B000AF786039607B68002B01D1EA
:104B600001239CE18A4B1B6803F00F033A689A42C9
:104B700010D9874B1B6823F00F0285493B6813430C
:104B80000B60834B1B6803F00F033A689A4201D015
:104B9000012384E17B681B6803F00403002B10D021
:104BA0007B681A697B4B9B6903F070039A4208D9B2
:104BB000784B9B6923F070027B681B69754913432E
:104BC0008B617B681B6803F00803002B10D07B68A7
:104BD0005A69704BDB6903F070039A4208D96D4B38
:104BE000DB6923F070027B685B696A491343CB6120
:104BF0007B681B6803F01003002B10D07B689A6958
:104C0000644BDB6903F4E0639A4208D9614BDB69CA
:104C100023F4E0627B689B695E491343CB617B6848
:104C20001B6803F02003002B10D07B68DA69594B16
:104C30001B6A03F070039A4208D9564B1B6A23F093
:104C400070027B68DB69534913430B627B681B6806
:104C500003F00203002B10D07B68DA684D4B9B6990
:104C600003F00F039A4208D94A4B9B6923F00F02C5
:104C70007B68DB68474913438B617B681B6803F0E3
:104C80000103002B55D0434B9B6923F470627B6872
:104C90009B68404913438B617B685B68022B07D19B
:104CA0003C4B1B6803F40033002B21D10123F6E0B9
:104CB0007B685B68032B07D1364B1B6803F00073DE
:104CC000002B15D10123EAE07B685B68012B07D13B
:104CD000304B1B6803F48073002B09D10123DEE005
:104CE0002C4B1B6803F00403002B01D10123D6E0F9
:104CF000284B1B6923F007027B685B682549134337
:104D00000B61FEF79DFD78610AE0FEF799FD024612
:104D10007B69D31A41F28832934201D90323BEE062
:104D20001C4B1B6903F038027B685B68DB009A420E
:104D3000EBD17B681B6803F00203002B10D07B686B
:104D4000DA68144B9B6903F00F039A4208D2114BA7
:104D50009B6923F00F027B68DB680E4913438B616C
:104D60000B4B1B6803F00F033A689A4214D2084BAE
:104D70001B6823F00F0206493B6813430B60044B8A
:104D80001B6803F00F033A689A4205D0012386E0BE
:104D900000200052004402587B681B6803F00403A3
:104DA000002B10D07B681A693F4B9B6903F070039E
:104DB0009A4208D23C4B9B6923F070027B681B69C6
:104DC000394913438B617B681B6803F00803002B90
:104DD00010D07B685A69344BDB6903F070039A4248
:104DE00008D2314BDB6923F070027B685B692E4986
:104DF0001343CB617B681B6803F01003002B10D0BA
:104E00007B689A69284BDB6903F4E0639A4208D215
:104E1000254BDB6923F4E0627B689B6922491343DD
:104E2000CB617B681B6803F02003002B10D07B68EC
:104E3000DA691D4B1B6A03F070039A4208D21A4BC1
:104E40001B6A23F070027B68DB69174913430B620E
:104E500000F034F80246144B9B691B0A03F00F0361
:104E60001249CB5C03F01F0322FA03F33B610E4BA4
:104E70009B6903F00F030D4AD35C03F01F033A69EB
:104E800022FA03F30A4A13600A4A3B6913600A4B89
:104E90001B681846FEF78AFC0346FB73FB7B18462B
:104EA0001837BD4680BD00BF00440258E0C7000867
:104EB00004000024000000241800002480B489B0FD
:104EC00000AFB34B1B6903F03803182B00F2558178
:104ED00001A252F823F000BF3D4F00087B510008AB
:104EE0007B5100087B5100087B5100087B51000872
:104EF0007B5100087B510008634F00087B5100087C
:104F00007B5100087B5100087B5100087B51000851
:104F10007B5100087B510008694F00087B51000855
:104F20007B5100087B5100087B5100087B51000831
:104F30007B5100087B5100086F4F0008944B1B68A1
:104F400003F02003002B09D0914B1B68DB0803F012
:104F50000303904A22FA03F3BB6111E18D4BBB615D
:104F60000EE18D4BBB610BE18C4BBB6108E1884BC3
:104F70009B6A03F003037B61854B9B6A1B0903F06B
:104F80003F033B61824BDB6A03F00103FB60804B14
:104F90005B6BDB08C3F30C03FA6802FB03F307EE59
:104FA000903AF8EE677AC7ED027A3B69002B00F081
:104FB000E1807B69022B00F083807B69022B00F289
:104FC000A1807B69002B03D07B69012B56D099E02F
:104FD0006F4B1B6803F02003002B2DD06C4B1B681C
:104FE000DB0803F003036B4A22FA03F37B607B6860
:104FF00007EE903AF8EE676A3B6907EE903AF8EEF2
:10500000677A86EEA77A624B1B6BC3F3080307EE41
:10501000903AF8EE676A97ED026ADFED615AC6EEE4
:10502000257A76EEA77AF7EE006A77EEA67A67EE33
:10503000277AC7ED077A87E03B6907EE903AF8EEEA
:10504000677ADFED586A86EEA77A514B1B6BC3F384
:10505000080307EE903AF8EE676A97ED026ADFED13
:10506000505AC6EE257A76EEA77AF7EE006A77EE0A
:10507000A67A67EE277AC7ED077A65E03B6907EE07
:10508000903AF8EE677ADFED486A86EEA77A404BF1
:105090001B6BC3F3080307EE903AF8EE676A97EDCF
:1050A000026ADFED3F5AC6EE257A76EEA77AF7EE72
:1050B000006A77EEA67A67EE277AC7ED077A43E0B3
:1050C0003B6907EE903AF8EE677ADFED386A86EED4
:1050D000A77A2F4B1B6BC3F3080307EE903AF8EE49
:1050E000676A97ED026ADFED2E5AC6EE257A76EEF4
:1050F000A77AF7EE006A77EEA67A67EE277AC7ED11
:10510000077A21E03B6907EE903AF8EE677ADFED27
:10511000266A86EEA77A1E4B1B6BC3F3080307EEC5
:10512000903AF8EE676A97ED026ADFED1D5AC6EE17
:10513000257A76EEA77AF7EE006A77EEA67A67EE22
:10514000277AC7ED077A00BF114B1B6B5B0A03F090
:105150007F0301333B603B6807EE903AB8EE677A15
:10516000D7ED076AC6EE877AFCEEE77A17EE903A3B
:10517000BB6105E00023BB6102E0074BBB6100BFE0
:10518000BB6918462437BD465DF8047B704700BFF5
:10519000004402580090D00300093D0040787D0192
:1051A000000000460024744C0024744A20BCBE4B0E
:1051B00080B582B000AFFFF781FE0246104B9B69BD
:1051C0001B0A03F00F030F49CB5C03F01F0322FA05
:1051D00003F37B600A4B9B6903F00F03094AD35C1E
:1051E00003F01F037A6822FA03F3074A1360074AA1
:1051F0007B681360044B1B6818460837BD4680BDAA
:1052000000440258E0C70008040000240000002405
:1052100080B500AFFFF7CCFF0246064BDB691B09E8
:1052200003F007030449CB5C03F01F0322FA03F3E6
:10523000184680BD00440258E0C7000880B500AFA2
:10524000FFF7B6FF0246064BDB691B0A03F00703B4
:105250000449CB5C03F01F0322FA03F3184680BD18
:1052600000440258E0C700082DE9B04FCAB000AFB3
:10527000C7F81401002387F82731002387F8263167
:10528000D7F81431D3E9002302F00064002554EA72
:10529000050349D0D7F814319B6EB3F5401F2FD0CA
:1052A000B3F5401F28D8B3F5001F1AD0B3F5001F7F
:1052B00022D8002B03D0B3F5801F07D01CE0B84BD9
:1052C000DB6AB74A43F40033D3621AE0D7F81431EB
:1052D00008330221184601F08FFC034687F8273176
:1052E0000FE0D7F8143128330221184601F036FDBB
:1052F000034687F8273104E0012387F8273100E0CF
:1053000000BF97F82731002B0AD1A54B1B6D23F462
:105310004011D7F814319B6EA14A0B43136503E08B
:1053200097F8273187F82631D7F81431D3E90023CD
:1053300002F480784FF0000958EA090347D0D7F803
:1053400014319B6D042B2AD801A252F823F000BF20
:10535000655300087353000889530008A7530008D9
:10536000A75300088E4BDB6A8D4A43F40033D362A7
:105370001AE0D7F8143108330021184601F03CFC3C
:10538000034687F827310FE0D7F81431283300217E
:10539000184601F0E3FC034687F8273104E00123B7
:1053A00087F8273100E000BF97F82731002B0AD19A
:1053B0007B4B1B6D23F00701D7F814319B6D784AA6
:1053C0000B43136503E097F8273187F82631D7F8A8
:1053D0001431D3E9002302F4007A4FF0000B5AEAAB
:1053E0000B034CD0D7F81431DB6DB3F5807F30D090
:1053F000B3F5807F29D8C02B2DD0C02B25D8802B8A
:1054000018D0802B21D8002B02D0402B07D01CE0D5
:10541000634BDB6A624A43F40033D3621CE0D7F883
:10542000143108330021184601F0E6FB034687F8E3
:10543000273111E0D7F8143128330021184601F044
:105440008DFC034687F8273106E0012387F82731D2
:1054500002E000BF00E000BF97F82731002B0AD11F
:105460004F4B1B6D23F4E071D7F81431DB6D4C4AC0
:105470000B43136503E097F8273187F82631D7F8F7
:105480001431D3E9002302F48063C7F80831002304
:10549000C7F80C31D7E942120B46134353D0D7F863
:1054A0001431D3F8A830B3F5000F35D0B3F5000FA1
:1054B0002ED8B3F5C00F31D0B3F5C00F28D8B3F54F
:1054C000800F1AD0B3F5800F22D8002B03D0B3F58C
:1054D000001F07D01CE0324BDB6A314A43F4003333
:1054E000D3621CE0D7F8143108330021184601F0CC
:1054F00083FB034687F8273111E0D7F814312833AE
:105500000021184601F02AFC034687F8273106E0FF
:10551000012387F8273102E000BF00E000BF97F8C1
:105520002731002B0BD11E4B9B6D23F46001D7F864
:105530001431D3F8A8301A4A0B43936503E097F867
:10554000273187F82631D7F81431D3E9002302F444
:105550000063C7F800310023C7F80431D7E94012CF
:105560000B46134356D0D7F81431D3F8AC30B3F10F
:10557000806F38D0B3F1806F31D8B3F1407F34D031
:10558000B3F1407F2BD8B3F1007F1DD0B3F1007F82
:1055900025D8002B06D0B3F1807F0AD01FE000BFD2
:1055A00000440258A24BDB6AA14A43F40033D362A1
:1055B0001CE0D7F8143108330021184601F01CFB19
:1055C000034687F8273111E0D7F81431283300213A
:1055D000184601F0C3FB034687F8273106E0012394
:1055E00087F8273102E000BF00E000BF97F82731BD
:1055F000002B0BD18E4B9B6D23F0E061D7F814315B
:10560000D3F8AC308A4A0B43936503E097F827310F
:1056100087F82631D7F81431D3E9002302F000735C
:10562000C7F8F8300023C7F8FC30D7E93E120B4624
:1056300013433AD0D7F81431DB6C302B1FD0302B0A
:1056400019D8202B0CD0202B15D8002B19D0102BBB
:1056500011D1774BDB6A764A43F40033D36211E011
:10566000D7F8143108330221184601F0C5FA034671
:1056700087F8273106E0012387F8273102E000BFD1
:1056800000E000BF97F82731002B0AD1684BDB6C94
:1056900023F03001D7F81431DB6C654A0B43D36437
:1056A00003E097F8273187F82631D7F81431D3E98A
:1056B000002302F48053C7F8F0300023C7F8F43019
:1056C000D7E93C120B46134351D0D7F814311B6E67
:1056D000B3F5804F35D0B3F5804F2ED8B3F5405F8A
:1056E00031D0B3F5405F28D8B3F5005F1AD0B3F5D9
:1056F000005F22D8002B03D0B3F5805F07D01CE0F9
:105700004B4BDB6A4A4A43F40033D3621CE0D7F8C0
:10571000143108330021184601F06EFA034687F869
:10572000273111E0D7F8143128330021184601F051
:1057300015FB034687F8273106E0012387F8273158
:1057400002E000BF00E000BF97F82731002B0AD12C
:10575000374B1B6D23F4E041D7F814311B6E344AEC
:105760000B43136503E097F8273187F82631D7F804
:105770001431D3E9002302F40053C7F8E8300023C2
:10578000C7F8EC30D7E93A120B46134356D0D7F896
:1057900014315B6EB3F5A02F33D0B3F5A02F2CD806
:1057A000B3F5802F2FD0B3F5802F26D8B3F5403F27
:1057B0002BD0B3F5403F20D8B3F5003F12D0B3F55E
:1057C000003F1AD8002B22D0B3F5803F15D1D7F86F
:1057D000143108330121184601F00EFA034687F808
:1057E000273115E0D7F8143128330121184601F08C
:1057F000B5FA034687F827310AE0012387F82731F5
:1058000006E000BF04E000BF02E000BF00E000BF10
:1058100097F82731002B0DD1054B1B6D23F4E021A8
:10582000D7F814315B6E024A0B43136506E000BFE4
:105830000044025897F8273187F82631D7F81431F9
:10584000D3E9002302F48043C7F8E0300023C7F80F
:10585000E430D7E938120B46134355D0D7F814314A
:10586000D3F8B030B3F1A04F33D0B3F1A04F2CD860
:10587000B3F1804F2FD0B3F1804F26D8B3F1405F02
:105880002BD0B3F1405F20D8B3F1005F12D0B3F159
:10589000005F1AD8002B22D0B3F1805F15D1D7F862
:1058A000143108330121184601F0A6F9034687F8A0
:1058B000273115E0D7F8143128330121184601F0BB
:1058C0004DFA034687F827310AE0012387F827318C
:1058D00006E000BF04E000BF02E000BF00E000BF40
:1058E00097F82731002B0BD1A34B9B6D23F0E041A0
:1058F000D7F81431D3F8B0309F4A0B43936503E0D7
:1059000097F8273187F82631D7F81431D3E90023E7
:1059100002F40043C7F8D8300023C7F8DC30D7E9D9
:1059200036120B46134337D0D7F814311B6FB3F13F
:10593000005F0ED0B3F1005F16D8002B18D0B3F182
:10594000805F11D18C4BDB6A8B4A43F40033D36206
:105950000FE0D7F8143108330121184601F04CF953
:10596000034687F8273104E0012387F8273100E058
:1059700000BF97F82731002B0AD17F4B1B6D23F016
:105980004051D7F814311B6F7B4A0B43136503E07A
:1059900097F8273187F82631D7F81431D3E9002357
:1059A00002F08073C7F8D0300023C7F8D430D7E9AD
:1059B00034120B46134339D0D7F814319B6C032BA8
:1059C0001CD801A252F823F0055A0008D959000842
:1059D000E7590008055A0008674BDB6A664A43F43A
:1059E0000033D3620FE0D7F8143108330221184690
:1059F00001F002F9034687F8273104E0012387F814
:105A0000273100E000BF97F82731002B0AD15A4B0D
:105A1000DB6C23F00301D7F814319B6C564A0B431F
:105A2000D36403E097F8273187F82631D7F814318B
:105A3000D3E9002302F48003C7F8C8300023C7F875
:105A4000CC30D7E932120B46134300F09F804B4B0A
:105A50001B684A4A43F480731360FDF7F1FEC7F8F0
:105A600020010BE0FDF7ECFE0246D7F82031D31AF7
:105A7000642B03D9032387F8273105E03F4B1B68CC
:105A800003F48073002BEDD097F82731002B79D1E8
:105A9000394B1A6FD7F81431D3F8B430534003F4AC
:105AA0004073002B15D0344B1B6F23F44073C7F8A1
:105AB0001C31314B1B6F304A43F4803313672E4B3C
:105AC0001B6F2D4A23F4803313672B4AD7F81C3100
:105AD0001367D7F81431D3F8B430B3F5807F18D1F9
